{
  "contractName": "CheckInEvent",
  "abi": [
    {
      "inputs": [
        {
          "internalType": "uint256",
          "name": "date",
          "type": "uint256"
        }
      ],
      "payable": false,
      "stateMutability": "nonpayable",
      "type": "constructor"
    },
    {
      "payable": true,
      "stateMutability": "payable",
      "type": "fallback"
    },
    {
      "constant": false,
      "inputs": [
        {
          "internalType": "address",
          "name": "_contract",
          "type": "address"
        }
      ],
      "name": "setRegister",
      "outputs": [],
      "payable": false,
      "stateMutability": "nonpayable",
      "type": "function"
    },
    {
      "constant": false,
      "inputs": [],
      "name": "checkIn",
      "outputs": [],
      "payable": false,
      "stateMutability": "nonpayable",
      "type": "function"
    },
    {
      "constant": false,
      "inputs": [],
      "name": "bookingTimeout",
      "outputs": [],
      "payable": false,
      "stateMutability": "nonpayable",
      "type": "function"
    }
  ],
  "bytecode": "0x608060405234801561001057600080fd5b506040516107d73803806107d78339818101604052602081101561003357600080fd5b8101908080519060200190929190505050336000806101000a81548173ffffffffffffffffffffffffffffffffffffffff021916908373ffffffffffffffffffffffffffffffffffffffff160217905550806003819055505061073c8061009b6000396000f3fe6080604052600436106100345760003560e01c8063183ff085146100dc57806359ce3b48146100f3578063caf37eee14610144575b3373ffffffffffffffffffffffffffffffffffffffff16600260009054906101000a900473ffffffffffffffffffffffffffffffffffffffff1673ffffffffffffffffffffffffffffffffffffffff16146100da576040517f08c379a000000000000000000000000000000000000000000000000000000000815260040180806020018281038252603d815260200180610688603d913960400191505060405180910390fd5b005b3480156100e857600080fd5b506100f161015b565b005b3480156100ff57600080fd5b506101426004803603602081101561011657600080fd5b81019080803573ffffffffffffffffffffffffffffffffffffffff169060200190929190505050610396565b005b34801561015057600080fd5b50610159610495565b005b600260009054906101000a900473ffffffffffffffffffffffffffffffffffffffff1673ffffffffffffffffffffffffffffffffffffffff16639c7ce288336040518263ffffffff1660e01b8152600401808273ffffffffffffffffffffffffffffffffffffffff1673ffffffffffffffffffffffffffffffffffffffff168152602001915050602060405180830381600087803b1580156101fc57600080fd5b505af1158015610210573d6000803e3d6000fd5b505050506040513d602081101561022657600080fd5b81019080805190602001909291905050506102a9576040517f08c379a00000000000000000000000000000000000000000000000000000000081526004018080602001828103825260178152602001807f5072656e6f74617a696f6e65206e6f6e2076616c69646100000000000000000081525060200191505060405180910390fd5b3373ffffffffffffffffffffffffffffffffffffffff166108fc600260009054906101000a900473ffffffffffffffffffffffffffffffffffffffff1673ffffffffffffffffffffffffffffffffffffffff1663302e68256040518163ffffffff1660e01b8152600401602060405180830381600087803b15801561032d57600080fd5b505af1158015610341573d6000803e3d6000fd5b505050506040513d602081101561035757600080fd5b81019080805190602001909291905050509081150290604051600060405180830381858888f19350505050158015610393573d6000803e3d6000fd5b50565b600073ffffffffffffffffffffffffffffffffffffffff16600160009054906101000a900473ffffffffffffffffffffffffffffffffffffffff1673ffffffffffffffffffffffffffffffffffffffff1614156104925780600160006101000a81548173ffffffffffffffffffffffffffffffffffffffff021916908373ffffffffffffffffffffffffffffffffffffffff160217905550600160009054906101000a900473ffffffffffffffffffffffffffffffffffffffff16600260006101000a81548173ffffffffffffffffffffffffffffffffffffffff021916908373ffffffffffffffffffffffffffffffffffffffff1602179055505b50565b3373ffffffffffffffffffffffffffffffffffffffff166000809054906101000a900473ffffffffffffffffffffffffffffffffffffffff1673ffffffffffffffffffffffffffffffffffffffff161461053a576040517f08c379a00000000000000000000000000000000000000000000000000000000081526004018080602001828103825260438152602001806106c56043913960600191505060405180910390fd5b600354421015610595576040517f08c379a00000000000000000000000000000000000000000000000000000000081526004018080602001828103825260368152602001806106526036913960400191505060405180910390fd5b600260009054906101000a900473ffffffffffffffffffffffffffffffffffffffff1673ffffffffffffffffffffffffffffffffffffffff1663caf37eee6040518163ffffffff1660e01b8152600401600060405180830381600087803b1580156105ff57600080fd5b505af1158015610613573d6000803e3d6000fd5b505050506000809054906101000a900473ffffffffffffffffffffffffffffffffffffffff1673ffffffffffffffffffffffffffffffffffffffff16fffe4c696d69746520706572206566666574747561726520696c20636865636b2d696e206e6f6e20616e636f7261207261676769756e746f536f6c6f20696c205265676973746572206173736f636961746f207075c3b220696e7669617265206568657220612074616c6520636f6e74726174746f5175657374612066756e7a696f6e6520c3a8206162696c697461746120736f6c6f2070657220696c2070726f70726965746172696f2064656c20636f6e74726174746fa265627a7a72315820427c5c96d289441b511f8e2e980bbdba617476453bc8a1aec27e31e063c4ae4964736f6c634300050c0032",
  "source": "pragma solidity ^0.5.0;\r\n\r\ninterface BookingManagerContract {\r\n    function checkBooking(address _booked) external returns (bool);\r\n    function getEventDeposit() external returns (uint);\r\n    function bookingTimeout() external;\r\n}\r\n\r\ninterface CheckInContract {\r\n    function setRegister(address _contract) external;\r\n}\r\n\r\ncontract CheckInEvent is CheckInContract{\r\n\r\n    address payable owner;                   //owner of the contract\r\n    address _registerContract;               //Address of the Register contract\r\n    BookingManagerContract registerContract; //Register contract in contract itself\r\n    uint256 limitDate;                       //Limit date for the checkin\r\n\r\n    constructor(uint256 date) public{\r\n        owner = msg.sender; //set the owner of the contract\r\n        limitDate = date;   //set the limit date of the event\r\n    }\r\n\r\n    /*\r\n        Override Fallback function for accepting payaments from the Register contract\r\n    */\r\n    function () external payable  {\r\n        require(\r\n            address(registerContract) == msg.sender,\r\n            'Solo il Register associato può inviare eher a tale contratto'\r\n        );\r\n    }\r\n    \r\n    /*\r\n        Set the Register contract address\r\n    */\r\n    function setRegister(address _contract) external {\r\n        if(_registerContract == address(0x0)){\r\n            _registerContract = _contract;\r\n            registerContract = BookingManagerContract(_registerContract);\r\n        }\r\n    }\r\n\r\n    /*\r\n        Check-In for the event\r\n    */\r\n    function checkIn() public {\r\n        //Check if msg.sender have a valid booking in the register contract\r\n        if(!registerContract.checkBooking(msg.sender)){\r\n            revert('Prenotazione non valida');\r\n        }\r\n        //Refound the Ethereum\r\n        msg.sender.transfer(registerContract.getEventDeposit());\r\n    }\r\n    \r\n    /*\r\n        Destroy the contract and trigger the Register destruction as well\r\n    */\r\n    function bookingTimeout() public {\r\n        require(\r\n            owner == msg.sender,\r\n            'Questa funzione è abilitata solo per il proprietario del contratto'\r\n        );\r\n        require (\r\n            now >= limitDate,\r\n            'Limite per effettuare il check-in non ancora raggiunto'\r\n        ); \r\n        // Destroy Register\r\n        registerContract.bookingTimeout();\r\n        selfdestruct(owner);\r\n    }\r\n\r\n}",
  "sourcePath": "C:/Users/Maimba/Desktop/ethvent-app/contracts/CheckInEvent.sol",
  "compiler": {
    "name": "solc",
    "version": "0.5.12+commit.7709ece9.Emscripten.clang"
  },
  "schemaVersion": "3.0.20",
  "updatedAt": "2019-12-29T17:21:23.797Z",
  "devdoc": {
    "methods": {}
  },
  "userdoc": {
    "methods": {}
  }
}